:020000041000EA
:1000000000B5324B212058609868022188439860DF
:10001000D860186158612E4B002199600221596106
:100020000121F02299502B49196001219960352056
:1000300000F044F80222904214D00621196600F024
:1000400034F8196E01211966002018661A6600F04E
:100050002CF8196E196E196E052000F02FF8012189
:100060000842F9D1002199601B49196000215960AB
:100070001A491B48016001219960EB211966A021F2
:10008000196600F012F800219960164914480160C1
:100090000121996001BC002800D000471248134993
:1000A000086003C880F30888084703B5996A0420EC
:1000B0000142FBD001200142F8D103BD02B5186610
:1000C0001866FFF7F2FF186E186E02BD00000240BE
:1000D000000000180000070000035F00212200005C
:1000E000F4000018222000A00001001008ED00E03C
:1000F00000000000000000000000000074B24E7A12
:1001000000200420F7010010C3010010C5010010F9
:10011000C1010010C1010010C1010010C101001097
:10012000C1010010C1010010C1010010C701001081
:10013000C1010010C1010010C9010010CB01001065
:10014000CD010010CD010010CD010010CD01001037
:10015000CD010010CD010010CD010010CD01001027
:10016000CD010010CD010010CD010010CD01001017
:10017000CD010010CD010010CD010010CD01001007
:10018000CD010010CD010010CD010010CD010010F7
:10019000CD010010CD010010CD010010CD010010E7
:1001A000CD010010CD010010CD010010CD010010D7
:1001B000CD010010CD010010CD010010CD010010C7
:1001C00000BE00BE00BE00BE00BE00BEEFF3058054
:1001D000103800BEF2EB8871B8290010D829001041
:1001E0003402001090A31AE700201F49086006C8D7
:1001F00081F3088810471D48006800282FD10DA4FE
:100200000ECC002902D000F012F8F9E71849194A7B
:10021000002000E001C19142FCD1174988471749ED
:1002200088471749884700BEFDE701C901C29A42C5
:10023000FBD37047D8290010C00000208C0200209A
:10024000A42B00100000042000000420A42B0010A8
:10025000001004200010042000000000704709482E
:1002600001F0E4FA0047000008ED00E0000000D0D3
:10027000900200206C060020CD1600104D050010E5
:100280009D1700105756000006005250ABB3605344
:100290006C29001006005250861C03025E290010D3
:1002A000060052505422A29D77290010050052509A
:1002B000DE65F468A42B0010F8B5C04610B5064CF6
:1002C0002378002B07D1054B002B02D0044800E017
:1002D00000BF0123237010BDA00300200000000018
:1002E000D0280010044B10B5002B03D0034904485C
:1002F00000E000BF10BDC04600000000A4030020C5
:10030000D0280010142342085343094A9B180122A5
:10031000104002019140074A40421040064A8018AE
:100320001A685140802252010840134318607047F8
:100330000C0005400100FEFFFFFF0000F7B5202282
:10034000794B1A601A6092181A60D0231B065B68FA
:10035000764A1B04DB0F1370754A16685768002B2A
:1003600000D1B6E0734B30001C685D68724B3900F9
:100370001A685B68009201930022002301F030FDAF
:10038000002848D00022200029006C4B01F020FDFD
:10039000002840D000230024664A300013605460D7
:1003A000A022674B1206390001F09FFCA022604B8F
:1003B00012061860596000980199614B01F09EFC8B
:1003C0005D4B186059605A4B1868596802000B0061
:1003D00001F0BBFC01F026FD81B20A20FFF792FF7D
:1003E000554B1868596802000B0001F0AEFC01F093
:1003F00019FD81B20B20FFF785FF4E4B1868596835
:1004000002000B0001F0A1FC01F00CFD81B20C20F8
:10041000FFF778FFF7BD002200980199002301F053
:10042000DFFC00281FD0002230003900434B01F0D0
:10043000CFFC002817D0002100223D4B19605A60E4
:1004400000980199A0223E4B120601F04EFCA0221A
:10045000394B120618605960394B2000290001F011
:100460004DFC344BADE7002200232000290001F0B1
:10047000B7FC00281FD00098019900222F4B01F0F3
:10048000A7FC002817D0002100222B4B2000196068
:100490005A60A0222A4B1206290001F026FCA02255
:1004A000244B120618605960254B3000390001F0CA
:1004B00025FC1F4B85E700201D4B224900221860B8
:1004C000596000211B4B19605A601B4B19605A6020
:1004D00079E732003B003000390001F036FC0022A1
:1004E000194B01F032FC01F09DFC81B20A20FFF7AC
:1004F00009FF114B1868596802000B0001F025FC38
:100500000022114B01F021FC01F08CFC81B20B2088
:10051000FFF7F8FE074B1868596802000B0001F05E
:1005200014FC0022084B6DE7A4000540C801002020
:10053000D001002090020020980300200000F03F2E
:100540009999C93F00E06F4000002040F7B502F0E4
:1005500053F91F211A2000F0AFF800221A201100D1
:1005600000F0C0F800211A2000F0D2F8E022424E3C
:10057000D201336808201340404AD024136000F0B1
:10058000D5F8072000F0D2F8062000F0CFF880233D
:10059000402724065B00A362803BA3620F20A76272
:1005A00000F0C4F880231B02A36204210A2000F09B
:1005B00083F804210B2000F07FF804210C2000F0C8
:1005C0007BF820232E4A2F4904200B6013600F6014
:1005D00017600B6013602C4900F054F901210420CE
:1005E00000F040F900230122284D294929486B6673
:1005F000EB662B676967AF666A666B66EB662B67AF
:100600006967AF666A66AB67C3672348C367234BF6
:100610001960EF67AA6701276368DB0B3B42FBD1D8
:1006200004221F4B1A6080235B0032681A42FCD000
:10063000706880B201F0DAFB01F000FC194D002275
:100640002B680193184B01F050FB019B1860596017
:100650006368DB093B4201D0144B2B6063689B0944
:100660003B4201D0124B2B6063681B0A3B42D3D044
:10067000104B2B60CFE7C04600C0044000D00440C0
:10068000A8200540A40005403D03001000000540DF
:10069000FFFF0000040005400800054088000540F9
:1006A00000E00440CC01002000002440980300201A
:1006B00090020020D0010020084B8200D218402375
:1006C00010B51468C0006340C02423408024640136
:1006D00022431360024BC018416010BD04C00140AA
:1006E00000400140094B8000C0184B1E9941531E29
:1006F0009A41C900036892001143594080230C229B
:100700005B011140184301607047C04604C00140BE
:10071000054B8000C01840228023002900D1C0234F
:100720009B0118430260704704C001400123D0229E
:10073000834010B51206936205219361FFF7BCFF59
:1007400010BD0000024B18688007C00F7047C046FC
:1007500000C00640EFF3108072B6034A1368002B06
:10076000FCD0BFF35F8F70472C0100D0BFF35F8FC9
:100770000022024B1A6080F3108870472C0100D0D1
:100780000722CB08C35C0120114088401840431E5B
:100790009841C0B27047F8B505000C001700FFF78C
:1007A000D9FF210006002800FFF7EAFF002803D048
:1007B0002100380000F0F6FF07210123E2080C4079
:1007C000A340A95C30000B43AB54FFF7CFFFF8BD4B
:1007D0000021044B044ABFF35F8F02C39342FAD156
:1007E0007047C046000100D0800100D0044A107854
:1007F000431CDBB2172B01D8137070471023FBE7A3
:10080000D8010020074B10309B688000C150BFF317
:100810005F8FBFF35F8F0021034B196082F3108855
:100820007047C04600ED00E0240100D00122824064
:10083000034B1B6813405A1E9341D8B27047C04601
:1008400000E100E0002904D0034B1860034B18605E
:100850007047034BFBE7C04680E200E000E100E0A8
:1008600080E100E00123834010B51800FFF7EAFFA4
:1008700010BD0000024B10309B688000C0587047CC
:1008800000ED00E070B504000D00EFF3108672B6C5
:100890000A4A1368002BFCD0BFF35F8F2000FFF7DC
:1008A000E9FF074B984203D0A84201D000F092FF25
:1008B000320029002000FFF7A5FF70BD240100D001
:1008C000CD010010F0B585B005000191EFF3108364
:1008D000029372B6494A1368002BFCD0BFF35F8FB6
:1008E0002F00474B10379B68BA00D458454B9C42A9
:1008F00069D0019A944200D17DE0434BE31A2F2B3B
:1009000061D82800FFF792FF002103902800FFF72D
:10091000A9FFBFF35F8FEFF30586002E03D0B74228
:1009200001D000F057FF012322000C219A4313004D
:100930008C46002206219868019F5956B84214D16E
:1009400000291ADA002E49D1002A45D0FF219171E1
:100950002E4991802E492C480A789A712D4A1B1AEB
:100960005B415A43120D0A7029E0002927DB6246D9
:1009700051431A00244B5B18DCE70C204843224A01
:100980001618B7689F60F779DF710627F7579F71D0
:10099000B7797F2F1ED8B688D21A760536158019FA
:1009A0001218E0201205520D000202439A800C2218
:1009B0004A43154B9B18164A1078117098712800FD
:1009C0000399FFF74FFF21002800029AFFF71AFF53
:1009D00005B0F0BD104AE9E70A4CBBE70F4A1049E1
:1009E000D21A083A5002400D014399800D4952082D
:1009F0000A43DA80E3E71C00E5E7C046240100D0A3
:100A000000ED00E0CD010010DC01002001BDFFFF82
:100A100069060020AAAA000001BD000016020020FD
:100A200000F0FFFF00F8FFFF0123EFF30581034310
:100A3000F0B51E00EFF3108772B61C4B1B68002B3D
:100A4000FBD0BFF35F8F1A4A04001A4BA41A64410B
:100A500063431B0D5BB29C46174B89009B681400D7
:100A60005B581D000023B54214D1134B134A9B68F9
:100A70005A50134B1A78827162461A70BFF35F8F17
:100A800000230A4A136087F31088F0BD01330C3449
:100A9000042BEED0062161566145F7D10C214B4362
:100AA000D218FF239371074B9380E2E7240100D013
:100AB000DC010020AAAA000000ED00E0CD0100103A
:100AC0006906002001BDFFFF054B064A1360064A78
:100AD000136053609360D3601361536193617047F7
:100AE0008080808000E400E004E400E0024BC9184C
:100AF000890001607047C0464000003410B5040012
:100B0000FFF774FE01002000FFF7F0FFFF232371C1
:100B1000BFF35F8F10BD10B50400FFF767FE010043
:100B20002000FFF7E3FFFF23A380BFF35F8F10BD1B
:100B300030B5084D01226C6A0023A14206D8AD6A87
:100B40001300854202D20B1B591E8B411340180023
:100B500030BDC0460040054083680A4810B50918FA
:100B600012181201090159189B185C684A68012083
:100B7000944205D803D11A680B689A4200D8002025
:100B8000C0B210BDFFFFFF0F70B50C0005000800DC
:100B900000F052FB2000094900F0A6FAFFF726FEFC
:100BA000074B2C75C018D0231B061B6880006B7583
:100BB000044BA4006860E55070BDC046E50C001011
:100BC00040000034000400200A4B1868EFF3108244
:100BD00072B601680029FCD0BFF35F8F1B68BFF3BA
:100BE0005F8F0021196082F3108840BF0020002130
:100BF0007047C04614060020032330B51C00534341
:100C00004C43033BC318033C9970015D051900294F
:100C100001D12A7030BD5970FBE70000F0B585B0F6
:100C200002930CAB1C780DAB1B7807000568019292
:100C30000393002C10D1AC7B002C47D003236343DB
:100C40002A68033BD3185A78AA73002A00D1EA73A2
:100C500000229A705A701A70214BBA68E3181B016F
:100C6000D318019A1A60029A5A600A9A9A600B9AEB
:100C7000DA60032363432A68033BD31800229A7087
:100C80005A701A706E7B964228D022003100A868F4
:100C90006B68984700281CD0220031002868FFF7B5
:100CA000ABFF6E73A64211D1387D019A029B00F012
:100CB00065FA051E06D0039B002B03D1210038687E
:100CC00000F07EFB0E9B002B00D01D70200005B0B5
:100CD000F0BD320021002868FFF78EFF2600E0E714
:100CE000FFFFFF0F0023F0B58FB00C935E4B820027
:100CF000D4580D9000F0EEF902000B006068EFF39D
:100D00001081089172B601680029FCD0BFF35F8F93
:100D100021688C46497B0791002971D05349079877
:100D20004518A1682D014D192868696806000F0053
:100D3000B61A9F41002F57DC01D1002E54D100215B
:100D4000604600F033FB2A686B680A920B93E368F5
:100D5000079AAF689B18013B1B78ED680C931B0248
:100D60000343002023616368BFF35F8F00221A6092
:100D7000089B83F31088974271D00C9B29001802BE
:100D8000079B1843B847089009916268EFF31083F6
:100D90001E0072B61368002BFCD0BFF35F8F099B57
:100DA000002B35DA2369002B40D00A9A0B9B089858
:100DB0000999121A8B41002B02DA01222C4B524264
:100DC00000210491013103910799200002910195BE
:100DD0000097FFF723FF002263682261BFF35F8F54
:100DE0001A6086F3108885E702000B000D9800F06A
:100DF000C5F90025002200232F000A920B93B2E7C9
:100E000000220023079D0A920B932F002800AAE7D7
:100E1000089B099A134309D02369002B06D000F0E0
:100E200059F9089A099B12184B41C4E72368D97BEA
:100E3000002906D003224A4319688A180799033A01
:100E400051709A7B002A01D1079A9A73079ADA7334
:100E50001300E168013BCA5C0132CA54BBE70028B9
:100E600000D047E70FB0F0BD00040020FFFFFF0FE8
:100E7000FFFFFF7F10B50B4C6368002B0CD11021D6
:100E80002300094A206800F03DFA032000F016F91B
:100E900003212000FFF778FE0A210448FFF726FE11
:100EA00010BDC04624020020590B0010140600207B
:100EB000F0B58DB01F0014AB1B78002509931F23DC
:100EC0000400160004AA9B181D706268EFF31083DB
:100ED000069372B61368002BFCD0BFF35F8F1F23FD
:100EE00004AA9B180493139B32000193129B2000C9
:100EF000009303953B000295FFF790FE020000204F
:100F0000824203D0E3689B18013B18786168BFF305
:100F10005F8F069B0D6083F31088002A1CD004AB02
:100F2000D97F00291BD1000210430DB0F0BD0690FF
:100F30000791002909DA069A079BB61A9F41002FEC
:100F4000C3DA01260C4F7642BFE700F0C3F8069ED5
:100F5000079F36184F41F2E701204042E5E7099B21
:100F6000002B06D0129B00201399984703000B43D7
:100F7000DDD10020D9E7C046FFFFFF7FF8B50B00A9
:100F800004004168EFF3108572B60A68002AFCD0AD
:100F9000BFF35F8F2768D9B2787BDAB2884207D077
:100FA0000326564338688619033EB078002813D0CC
:100FB000E0681B0A8218013A1278DBB200209A42DC
:100FC00002D1380000F0FCF96368BFF35F8F0022A4
:100FD0001A6085F31088F8BD22699A42F4D1206125
:100FE000F2E700007FB5EFF3058305000C00002B4E
:100FF00005D028002100FFF79BFD04B070BD084E0E
:1010000002930193074B0200009330000B00FFF79F
:101010004FFF011EEDDD20BF3000FFF7AFFFE8E717
:1010200024020020C90B0010F7B5EFF30583180068
:1010300001931038EFF3108772B6194B1B68002B21
:10104000FBD0BFF35F8F012631008140154B164D59
:1010500069631960154B1B781A00C24094466446B8
:10106000002234420AD0124E6C6A8500AE59B44256
:101070000FD3104A8B430D49AA580B70BFF35F8FF3
:10108000002307490B6087F310889A4200D09047ED
:10109000F7BD019B08499B005B1819681960EDE7D3
:1010A000280100D03C700540004005406A06002041
:1010B00018060020BC030020D03F054010B50100F9
:1010C000024A0348FFF767FB10BDC046D028001056
:1010D00028060020034B596A0A00986A596A8A4216
:1010E000FAD1704700400540F7B504000D00EFF35A
:1010F0001083009372B61C4F3B68002BFCD0BFF3EB
:101100005F8FA300194E0193002D1BD02000FFF725
:10111000B1FB86420BD031002000FFF7B3FB012169
:101120002000FFF79FFB0123A340114A1360114BDE
:10113000019A9D50BFF35F8F00233B60009B83F3B8
:101140001088F7BD0B4BA2009D500122A2400A4916
:1011500020000B7893430B703100FFF7B3FB29009D
:101160002000FFF77FFBE5E7280100D029100010E1
:1011700038600540BC0300206A060020F0B585B049
:101180001E0004000192FFF7A5FF8E4203D847D14D
:10119000019B834244D9EFF31083039372B6214B32
:1011A0001B68002BFBD0BFF35F8F0125A5401E4BB2
:1011B0001E4F1B7800932B43DBB20293029A1A4B0B
:1011C0001A70019A231D9B007D63DA51184AA3000F
:1011D0009E503B6A2B420AD10020BFF35F8F002351
:1011E000104A1360039B83F3108805B0F0BDFFF72E
:1011F00071FF8E42F0D802D1019B8342ECD8029B52
:10120000009A01209342E8D01F2302001C40A24014
:10121000084B3D627D631A60034B009A1A70DCE74D
:101220000120E2E7280100D06A06002000400540C6
:101230001806002080E200E010B5EFF3108472B6CB
:101240000A490B68002BFCD0BFF35F8F012383405A
:10125000074A0848136202789A430270BFF35F8F0F
:1012600000230B6084F3108810BDC046280100D015
:10127000004005406A060020032330B51C0053439C
:101280004C43033BC318033C9970015D05190029C9
:1012900001D12A7030BD5970FBE770B506000C0013
:1012A0001500002912D0002A09D080687368984779
:1012B000002806D02A0021003068FFF7DDFF20005B
:1012C00070BD220029003068FFF7D6FF2C00F6E73A
:1012D0000122002330B5047B827343730268C47318
:1012E00003200133DDB2AC4205D80023604312185D
:1012F000033A537030BD0100594351180339013589
:101300004D70EEE710B5017342608360FFF7E0FFB8
:1013100010BD70B5040000291DD00568032003002E
:101320004B43033BEB185A78002A14D00026504355
:1013300003382818457846705E702000FFF7ADFF2F
:10134000290006002000FFF7E4FF31000200200022
:10135000FFF7A3FF0100080070BDF7B503273E00AB
:101360004E430368033E0D00995D04000192FFF7B0
:10137000D0FF019B002B0CD0E37B002B04D05F43FC
:101380002368DF19033F7D70A37B002B00D1A57379
:10139000E5732268002805D0032300214343D318B6
:1013A000033B9970002392195370FEBD70B5457BC5
:1013B0000A0029000400FFF7D0FF6073280070BD09
:1013C00070B50400081E07D0637B8B4205D1012154
:1013D0002000FFF7EBFF012070BD032633004B43D5
:1013E0002568033BEB189A78101EF5D07243033A38
:1013F000A818AA5C8A4211D15A78027000222000F3
:101400009A705A700132FFF7A8FF617B020020003A
:10141000FFF743FF6073DEE7002AEFD07243033A21
:10142000A81842788A42F7D15A784270E6E700005D
:10143000F0B585B003920A9A05000F0000209A4289
:1014400040D80C241A0E1B02029201930A9A030040
:101450000299019800F04CFA6C43284B0600E418FE
:101460006368834200D260602B1FDBB20093C0230D
:10147000009A9B012343012A26D8012F24D103225D
:101480001A60A3683B42FCD0039A236852015A4079
:101490008021E02349011A40009B21430A60012B6F
:1014A00021D9802380229B01234312011A600198D5
:1014B000002332000299666000F01AFA104BAD006A
:1014C0005851012005B0F0BD802212011A600C4B6A
:1014D000AA00D1580029D7D0586900F0CBF90130C3
:1014E0000138FDD1D0E7032223687B4013400B6015
:1014F0000123BB40A2681342FCD0D2E70080004029
:10150000CC03002073B50C2000F0C4F8FFF71AF9E3
:1015100000280AD000232C4A2C4899000133885017
:101520000A2BFAD12A4B536273BD2A4DA86700F0EB
:10153000B9F80122284B1A606B6C012BFCD10322F5
:10154000264B1A60AC6B012CFCD10225052621002C
:1015500000950623224A234800F04EF8330021006C
:10156000214A2248009600F047F8214B2900214DDE
:10157000009300220420FFF75BFF2B0021000022D4
:1015800030000095FFF754FF0022104C110023009B
:1015900000940720FFF74CFF002223001100009465
:1015A0000820FFF745FF0022094B11000093092096
:1015B0002300FFF73DFF00222B00110000950620BD
:1015C000FFF736FFB0E7C046CC030020006CDC021A
:1015D0001BB70000008000403CB0004030B000402D
:1015E000002F685900800240008C864700C00240EE
:1015F000001BB70040597307F8B504000C20170012
:101600001E000D0000F036F91D494143380000F07E
:1016100031F9069A3304120313432268002A0FDAC1
:101620003F2122680A40AA420AD1A2681205120D7F
:10163000824205D1EE21E268C9020A409A421BD0DB
:10164000104A944219D0802252010F490F4E0A606D
:101650000F490A601700B1688F43FBD1C022211DDA
:1016600092010A4321212560A060116021680029B0
:10167000FCDAE36008231360F8BD80229201E4E7FE
:1016800040420F0000C0024000E0004000C00040A7
:1016900000F000408023024A9B000343D36270475E
:1016A00000800540AA22064B12011A602F2205492C
:1016B000DA60054A11605A68002AFCDA7047C046B1
:1016C0000040024000B0FA0000600240234B244A70
:1016D00070B51A60234E244B244D33601900AA685C
:1016E0009143FBD1224C234B9C4224D3FFF70AFFAA
:1016F000214B3360AB68DB018033FBD140221F4BB1
:101700001F489A675A671A67DA661E4B984215D3C4
:101710001D4C1E4DA168C022280000F097FFA56057
:10172000FFF756F8FFF7D0F9FFF7A4FB184C194B59
:101730009C420FD370BD08CC9847D4E704000368DF
:101740000834002B03D0FFF7E6F92000DDE7FFF7B0
:10175000D5F9FAE708CC9847E9E7C04600E0004031
:10176000BFCDFBFE00F00040FE7F3C0000C000400B
:101770007802002088020020FFFFFF0100F00140F6
:10178000700200207802002000ED00E00000002040
:10179000880200208C02002000BEFDE710B5FFF794
:1017A000FBFF00000FB407B5084801F015F8049BD3
:1017B000002B07D005A91800019100F017F8044884
:1017C00001F00AF80120FFF7E7FFC046F2280010F9
:1017D0000029001010B50148FFF7E4FF02290010AE
:1017E00010B5002801D000F0DDFF10BD1FB5094B7A
:1017F0001C68002C09D001220300009106485242C7
:1018000003A9A047012004B010BD00F0E5FF2000AF
:10181000F9E7C046FC030020E1170010014804214D
:10182000014B1847500200204D180010142310B52A
:101830000100188804331B88984710BD162310B583
:101840000100188802331B88984710BDF8B50E00B8
:10185000040000270125B74201D12800F8BD206807
:10186000FFF7E4FF01C4431E9841404205400137A1
:10187000F1E70000114A936F9B0813D2106651667E
:10188000002905D0FFE7FFE7FFE7516F106F7047B2
:1018900004B5002801D00020C04301F009F8002160
:1018A00004BDC046F0B5146E556E576F166FFFF746
:1018B000E5FF1466556657671667F0BD000000D057
:1018C00094464A4A926F9208624601D228E0C04686
:1018D000F0B5464E346E756E776F366F00F020F8B7
:1018E0009446424A14665566576716676246F0BDCD
:1018F00094463E4A926F9208624601D254E0C04636
:10190000F0B53A4E346E756E776F366F00F04CF866
:101910009446364A14665566576716676246F0BDA8
:10192000002B24DB11D000293EDA00B5C943404228
:1019300000D1013100F038F8C943404200D10131F3
:10194000DB43524200D1013300BD002AEBD1002815
:1019500001D1002905D00020C90FC90701D1C0431A
:10196000410800B500F09CFF0022002300BD00B537
:1019700000290ADBDB43524200D1013300F014F8A6
:10198000C943404200D1013100BDC943404200D1AA
:101990000131DB43524200D1013300F005F8DB4353
:1019A000524200D1013300BD002923D1002B18D1B0
:1019B000002A0CD0BC460D4F38667A660021002301
:1019C000FFE7FFE7FFE77A6F386F67467047002849
:1019D00001D00748010000B500F062FF002200239B
:1019E00000BD02000B00002000217047000000D065
:1019F000FFFFFFFF002B00D0BFE0130C28D1002A0F
:101A0000E7D080B4114F39667A66FFE7FFE730B45C
:101A1000040C7B6F396F1B0423433B667A66FFE738
:101A2000FFE7FFE7C04684B27B6F3D6F1B04234393
:101A30003B667A66FFE7FFE7C04600232C042D0CC7
:101A40007A6F386F00196941B0BC7047000000D050
:101A5000F0B594460025140E01D112020835140F7A
:101A600001D112010435940F01D192000235D40F37
:101A700001D152000135D40B0134254F7C66254C31
:101A80003C660E0C93B2FFE7FFE7FFE73C6F66434F
:101A9000360C7703BE467343DF0B5B04C01AB941B3
:101AA000130C7343DB18C91ACE086643360CB644D0
:101AB00093B273431F0F1B01C01AB941130C734338
:101AC0001F0B1B05C01AB941860D8F023E436643AA
:101AD000360C092D24DB520A7243801A7703460A1A
:101AE0006643360C16235B1BDE40DF40BF1964469D
:101AF0006643821B7046043506330100D940A84076
:101B0000C01900D30131A24206D20023F0BD00006B
:101B1000000000D0FFFFFFFF121B0130F3D3F1E7FD
:101B200009277F1BFE406446A2B27243801A00D28E
:101B30000139220C7243130C1204821A99410B00D2
:101B40007046043513370100F940A840801900D3CE
:101B50000131002B02D1A2420AD2F0BD013000D3E4
:101B60000131121BFAD2013BF8D1A24200D2F0BDE2
:101B7000013000D30131121BF7E7F0B51C0C00D087
:101B800080E00CB400251C0A04D11B02160E33435E
:101B9000120208351C0B04D11B01160F334312012E
:101BA00004359C0B04D19B00960F33439200023501
:101BB000DC0B02D192185B4101351C00971864417F
:101BC0000134464F7C66464C3C660E0CFFE7FFE74F
:101BD000FFE7C0463C6F6643360C7703BE4697B2BC
:101BE0007743C01B00D20139C01B00D201399FB21C
:101BF0007743C91BC91B170C77437E04FF0B801B5F
:101C0000B941CE086643360C0C2D33DBB644120BBB
:101C10001F053A431B0B97B27743C01B00D2013913
:101C20009FB27743C91B170C77433E043F0C801BC0
:101C3000B941860D8F023E43664329277F1BFE4034
:101C40000C3D7746AF40BF1930BCA2B2ABB2724375
:101C50007343801A9941220C7243130C1204801AA8
:101C6000994102000B000137001BA941F9D2781EEF
:101C70000021F0BD0C277F1BFE4077467F0BAF4055
:101C8000FF19E0E700245D1C07D0144F7D6639661C
:101C9000FFE7FFE7FFE7FFE73C6F95B29EB26543C2
:101CA0006643401BB141150C1E0C65436643360468
:101CB0002F0C3E432D04401BB141994204D2020037
:101CC0000B0020000021F0BD01D19042F7D3801A13
:101CD000994101349942F2D3F6E70000000000D0A8
:101CE000FFFFFFFF48404140484018B41B4B5B6872
:101CF000FC46019308BD04DFDF1E001018B4174B2B
:101D00001B68FC46019308BD00DFE91E00109446E5
:101D1000134A926F920809D2624618B40F4BDB68DF
:101D2000FC46019308BD0CDFA12100100C4AF0B560
:101D3000146E556E576F166F6246FFF7EEFF084A36
:101D40001466556657671667F0BD18B4034B9B6859
:101D5000FC46019308BD08DF452000101004002058
:101D6000000000D0FFB550404240504059404B4029
:101D7000594000E0FFB5154F4C00640D03D0BC4244
:101D800004D10C0314D80020090D09055C00640D72
:101D900003D0BC4204D11C030AD800221B0D1B0532
:101DA00001264B4009D44B4003D58B4200D18242DF
:101DB000FFBD9942FCD19042FFBD0B43DB180343AA
:101DC0001343F5D0C9434918FFBD0000FF070000C9
:101DD00000B5FFF7CFFF01D9002000BD012000BDF5
:101DE00000B5FFF7BFFF804100BD000000210028C3
:101DF00005D17047C1174840401AFAD0C90713B53A
:101E0000064B1B6898470CBC441CA2401005120BE3
:101E10000349091B09051943114310BD1005002092
:101E20001F04000018B4044B5B6AFC46019308BD14
:101E300024DFF924001000001004002018B4044B23
:101E40009B69FC46019308BD18DF6D23001000005C
:101E500010040020132370B51C780F4D012C0ED1F7
:101E600000230E499A000133A950202BFAD10B4BC5
:101E7000AB640B48FFF7DAFC0A4B186070BD012C0D
:101E8000F5DD0948FFF7DAFC80220100280000F0A8
:101E9000DDFB022CEDD1EAE710040020AD1E00109E
:101EA0004C330000100500205344000007B5604685
:101EB00001880A0A0230DF2AFAD1C9B2820804D3A3
:101EC000028840880004104300E00068014A505036
:101ED000039007BD100400200FB403BC0CBCF0B588
:101EE0000124E407634000E0F0B50C0DCF0F661E3F
:101EF0003605891B640503D3C943404200D3013131
:101F0000640D03D0661CF60A07D0E41B00207F0096
:101F1000791C89078912803C24031D0DDF0F6E1E7A
:101F200036059B1B6D0503D3DB43524200D30133BF
:101F30006D0D03D06E1CF60A07D0ED1B00227F004A
:101F40007B1C9B079B12803D2D032F1B661B58D4C7
:101F5000A446202E46DA20371400BC401D00BD40A8
:101F6000F24033412A4380185941CB0F05D0C94371
:101F7000C043002264425041514162464D0D28D178
:101F80000D0D07D100281FD0241940414941013AC5
:101F90000D0DF9D0640006D3013000D30131002CBF
:101FA00001D140084000013A0BD4941CE40A04D14A
:101FB00012051144DB071944F0BDD907204B194322
:101FC00000E0D9070020F0BD0029DDD1002CDBD1D5
:101FD000F0BD0132C6074008CD0728434908002E4E
:101FE000E1D0D9E73C2E29DA203E40371400BC402E
:101FF00000D00124F24014431A00BB401C43D31705
:10200000ACE7AC46202F08DA20360400B4400D00BF
:10201000B540F84039412843A5E73C2F0CDA203F72
:1020200040360400B44000D00124F84004430800C6
:10203000B1400C43C117EAE710001900002494E7EF
:102040000000F07FF0B50C0D661E3605891BE60A10
:102050006405640D02D0651CED0A04D00020012146
:102060000905803C2403A4461C0D671E3F05DB1BAD
:10207000E70A6405640D02D0651CED0A04D0002255
:1020800001231B05803C24037740644497B484B249
:1020900096B27443070C7E43150C6F4380B26843BD
:1020A000361802D3012000043F183004350C001903
:1020B0007D41844688B29AB250430C0C62431F0C97
:1020C0007C438EB27E43921902D301263604A419B2
:1020D0001604170C3618674101BC81B29AB25143FD
:1020E000040C62431B0C5C4380B25843121802D3A9
:1020F0000120000424181004130C401863412D180B
:102100005E410020474106BC88B293B258430C0C94
:102110006343120C544389B251435B1802D301212B
:102120000904641819041A0C091862416D18564103
:102130000020474118BCF902720D1143F0026A0DEC
:102140001043ED020A0D03D16D1940414941013B95
:10215000124E9B1B7600B3420ED26D0007D30130A6
:10216000002671416646354301D1400840001B05F9
:10217000C918E4072144F0BD0BDA013306D1013060
:1021800004D101314F0D01D04908F2E7E1070020E9
:10219000F0BD013631050020EBE70000FF03000031
:1021A000F0B51C0D671E3F05DB1BE70A6405640DD7
:1021B00002D0661CF60A04D0002201231B05803CD5
:1021C0002403D0252D060026F6432E661E096E66D2
:1021D000CE0FF619B44649004F0D02D07E1CF60A08
:1021E00003D000200021403F3F033E1BB600B44413
:1021F000013F7F05C91B49082E6F013676089C02F6
:10220000950D25437543ED137543AD1301356D10E1
:10221000F603761B0CB4CC02450D2C43A2B2B3B22C
:102220005A43270C7B43350C6F43A4B26C431B19F4
:1022300002D3012424043F191C041D0CA4187D4161
:1022400024196D41009A91B2ACB26143170C7C43E2
:102250002B0C5F4392B25A43A41802D301221204FA
:10226000BF182204230C52187B41019C6C431B199C
:10227000520ED9010A434401A01A81B2B2B25143AD
:1022800003145A43360C734387B27743D617D219D7
:1022900000277E4136049B191704160C7F185E41F7
:1022A0007316ED18F301002680337541A90F06D18E
:1022B0006400690AE8055B0A184309D22FE004228A
:1022C000944480337541A90AA8059B0A184326D374
:1022D000404149412404009A019B0D005543641B71
:1022E0004343E41A95B286B27543170C7E43030C40
:1022F0005F4392B25A43B61802D301221204BF18A8
:102300003204330C52197B4152429C41002C02D4BE
:102310000022013051414008CA071043490802B069
:102320006246D7079210084BD218084B9A4203D244
:1023300012058918C919F0BD0020002A01DC3900F6
:10234000F0BD01331905F5E7FD030000FE070000AD
:1023500007DA002107E0C90FC907520D03D0C912DF
:1023600001E04C49090500207047C0464A00F2D2FE
:10237000520D013A484B9A42EAD2F0B51405091BB6
:10238000520801D3001849419B08D21812059446FF
:1023900040A44A0CA25C0B09534353431B13534301
:1023A0005B131202D21A13005B435B0B4C086343AE
:1023B000DB135343DB1501335B10D21A130CD21A13
:1023C00013005B438902840D21438DB29EB2754395
:1023D0000F0C7E431B0C5F438CB25C43361902D357
:1023E000012424043F193404330C64197B419D01FA
:1023F000A40E2C432034A5B25543241454432D0C71
:102400006419A411D203121B95B28EB27543170C36
:102410007E430C0C674393B26343F61802D3012347
:102420001B04FF183304340C5B197C41DB18644136
:10243000DB18002363419EB276439DB21F0C7D439F
:102440007F436C04ED0BA4197D4106028F08361BF7
:10245000AF417D07F6086E41B4B295B26C433714B4
:102460007D43120C5743B6B25643EA17AD19002606
:1024700072411204BF182E042A0C36197A41083210
:10248000521117D29D0A9C05D11710196941614458
:10249000F0BD0000FF070000FE070000F8EBDFD6EC
:1024A000CDC5BEB8B2ADA8A4A09C9995928F8D8AD7
:1024B0008885838152415D0ADC05D11714194D418D
:1024C0002B006343A6B27643A2B2270C7A437F4324
:1024D0005104D20B89197A41D218D2188005494289
:1024E000904102D4002301345D4160086908ED0782
:1024F00028436144F0BDC046002200B5203200F000
:1025000004F8080000BD000000220B150AD410B525
:10251000944600F031F81414013400DA0021CB178E
:10252000144C20470020002170476244343A0CD4F8
:102530000C2A07DA04009140904052422032D440E5
:10254000214310BDD843D94310BD203207D40C46D7
:102550009440524220321141D040204310BD080027
:10256000C917203203D452422032104110BD180046
:10257000190010BD2B2500100A0DCC0F531E1B0592
:10258000C91A520503D3C943404200D30131520D49
:1025900003D0531CDB0A07D0121B00206400611C0F
:1025A00089078912803A1203014BD21A7047000042
:1025B000FF030000132310B510481C78FFF73EF905
:1025C0000100012C13D10E4C5422200000F03EF8E3
:1025D00015230C4A990001336250202BFAD1226254
:1025E000E2610948FFF722F9084B186010BD012C81
:1025F000F7DD8022024800F029F8F2E75346000098
:1026000014050020112600104C3300001005002096
:1026100007B5604601880A0A0230DF2AFAD1C9B23A
:10262000820804D3028840880004104300E0006858
:10263000014A5050039007BD1405002001480421B1
:10264000014B1847600200204D180010014B5B68D9
:102650001847000060020020030010B508001100B8
:102660001B68984710BD0000F8B50C000021437DA1
:102670000500160008008B421ED1110020002B68B7
:102680009847F8BD002927D0631E5B5C0D3B5A427A
:102690005341DBB2625C4F1C0A2A0CD1002B0AD1D9
:1026A000814203DD091A2B68201898470D48022142
:1026B0002B689847380039008E42E3DC86420DDDF6
:1026C000311A2B6820189847A419013C23780D3B38
:1026D0005A4253412B75D4E72B7DDBE7002ED0DD2A
:1026E000F2E7C046B329001010B5FEF7F3FC002353
:1026F000054A12184B41002B02DA0122034B5242C9
:10270000034800F0DDF810BD40420F00FFFFFF7FDF
:102710007002002010B5024800F0BAF810BDC046A3
:1027200070020020F0B585B006000D001C0000927C
:10273000FFF7DAFF01906B1C03D1300000F076F850
:102740000500144F002C00D1134F144B1C68002CB3
:1027500006D1019B002B01D0FFF7DCFF05B0F0BDD7
:102760002368002B13D00E4B1B68002B01D09C421A
:102770000DD12A0031002000B847009B002B06D065
:1027800002ABD91D0A23012220000B70B84724692F
:10279000DDE7C0465926001069260010F40300202A
:1027A000F803002013B56B460400D81D0023012157
:1027B0001A000470FFF7B6FF200016BD054B10B5D8
:1027C0001C68002C00D110BD6368002B00D0984716
:1027D0002469F6E7F403002070B5050000F026F840
:1027E00004000100002328000122FFF79BFFFFF7F0
:1027F000E5FF200070BD00000123084A084913606E
:10280000084A136018008A689043FBD1064A136097
:1028100080235B0011681942FCD0704700E0004043
:1028200000C0004000F0004000C0044010B5830725
:102830000AD00300032102E001330B4205D01A78CD
:10284000002AF9D1181A10BD030019680C4A0D4C62
:102850008A188A4322420FD15968094A04338A18D8
:102860008A43224208D15968054A04338A188A43A8
:102870002242F1D000E001331A78002AFBD1E1E7CF
:10288000FFFEFEFE80808080F8B5C046000000009C
:1028900001B40248844601BC604700BF89010020A2
:1028A00001B40248844601BC604700BFB10100206A
:1028B00001B40248844601BC604700BFB10100205A
:1028C00001B40248844601BC604700BF5B010020A0
:1028D000486172647761726520616C61726D202558
:1028E0006420616C726561647920636C61696D65F7
:1028F00064000A2A2A2A2050414E4943202A2A2AC3
:102900000A004861726420617373657274004D69D6
:102910006E53697A6552656C00626F6F74325F77CF
:102920003235713038300068747470733A2F2F6705
:1029300069746875622E636F6D2F72617370626562
:1029400072727970692F7069636F2D6578616D702F
:102950006C65732F747265652F484541442F6C6513
:1029600064436F6E74726F6C6C657200312E352E1D
:1029700030007069636F0041707220203320323064
:1029800032330006005250BBFF3CB67229001006DD
:102990000052509A2356182729001006005250E181
:1029A00082887F1929001006005250D3F075420E1C
:0829B0002900100D0A000000CF
:1029B800AC020010A002001094020010832900103D
:1029C800880200108F2900109B290010A7290010E9
:1029D800030010B50068EFF3108472B60268002A8D
:1029E800FCD0BFF35F8F04229A56002A0CDAD0225B
:1029F8000120120612681A711B68BFF35F8F00224C
:102A08001A6084F3108810BD081EF5D000200A60F3
:102A1800F2E7F7B51E00D023050017001B061B6858
:102A280001932968EFF3108372B60A68002AFCD074
:102A3800BFF35F8F297900242A687F2908D9019973
:102A48002971BFF35F8F146083F310880120FEBDE6
:102A5800BFF35F8F146083F310883800310000F0F3
:102A680033F80028DDD02000F1E773B501A9040090
:102A780016001D00FFF7ACFF00280CD1D02212066B
:102A8800019B12785BB252B2934204D032002B0001
:102A98002000FFF7BEFF76BD0168EFF3108372B622
:102AA8000A68002AFCD0BFF35F8FFF220271026818
:102AB800BFF35F8F0021116083F3108840BF704718
:102AC8007047C0460000000001B40248844601BCBB
:102AD800604700BFE50F001001000000D001002092
:102AE8000000000000E06F4010000000000000003F
:102AF80000000100000000000000000000000200CB
:102B080000000000000000000000030000000000BA
:102B1800000000000000FF000000000001B5486848
:102B280001318E460047704609380149884701BD82
:102B3800290A00103C020020000000009802002032
:102B480029060020000000000000000039060020CF
:102B5800000000000000000010000000000000005D
:102B6800503300004C33000054330000523300004F
:102B78004D5300004D43000053340000433400001F
:102B880000000000000000003D2600101D18001085
:0C2B9800551E0010B5250010E5020010CD
:04000005100001E9FD
:00000001FF
